:100000000C942A000C9434000C9434000C943400AA
:100010000C9434000C9434000C9434000C94340090
:100020000C9434000C9434000C9434000C94340080
:100030000C9434000C9434000C9434000C94340070
:100040000C9434000C9434000C9434000C94340060
:100050000C94340011241FBECFE5D8E0DEBFCDBF25
:100060000E9476040C947F040C940000DF93CF93DD
:10007000CDB7DEB728970FB6F894DEBF0FBECDBF61
:100080009C838B837E836D838B819C81009709F495
:1000900072C08B819C818530910508F06CC08D8188
:1000A0009E818830910508F066C04B815C8158873D
:1000B0004F838F8198858230910541F14F8158851A
:1000C0004330510530F48F8198858130910561F07E
:1000D00052C04F8158854330510551F18F81988529
:1000E00084309105B9F147C0EAE3F0E02081318125
:1000F0008D819E81A90102C0569547958A95E2F7A8
:10010000CA01817090709A83898335C0E7E3F0E07B
:10011000208131818D819E81A90102C0569547952C
:100120008A95E2F7CA01817090709A83898323C00F
:10013000E4E3F0E0208131818D819E81A90102C03C
:10014000569547958A95E2F7CA01817090709A8317
:10015000898311C0E1E3F0E0208131818D819E81AE
:10016000A90102C0569547958A95E2F7CA018170A8
:1001700090709A83898389819A8128960FB6F89422
:10018000DEBF0FBECDBFCF91DF910895DF93CF9338
:10019000CDB7DEB72A970FB6F894DEBF0FBECDBF3E
:1001A0009A8389837C836B835E834D8389819A8163
:1001B000009709F410C189819A818530910508F072
:1001C0000AC18B819C818830910508F004C18D8122
:1001D0009E81009731F08D819E818130910509F0DB
:1001E000FAC08D819E818130910509F078C08981A6
:1001F0009A8198878F838F8198858230910569F1E4
:100200008F8198858330910530F48F819885813076
:10021000910569F0E0C08F8198858330910599F14F
:100220008F8198858430910509F443C0D4C0ABE335
:10023000B0E0EBE3F0E0408151812B813C8181E033
:1002400090E0022E02C0880F991F0A94E2F7842BD7
:10025000952B11969C938E93BEC0A8E3B0E0E8E383
:10026000F0E0408151812B813C8181E090E0022EC1
:1002700002C0880F991F0A94E2F7842B952B1196E0
:100280009C938E93A8C0A5E3B0E0E5E3F0E0408145
:1002900051812B813C8181E090E0022E02C0880FC9
:1002A000991F0A94E2F7842B952B11969C938E93B9
:1002B00092C0A2E3B0E0E2E3F0E0408151812B8103
:1002C0003C8181E090E0022E02C0880F991F0A94C1
:1002D000E2F7842B952B11969C938E937CC0898199
:1002E0009A81009709F077C089819A819A878987D6
:1002F00089859A858230910569F189859A8583304F
:10030000910530F489859A858130910569F063C043
:1003100089859A858330910599F189859A858430FC
:10032000910509F443C057C0ABE3B0E0EBE3F0E064
:10033000408151812B813C8181E090E0022E02C0FE
:10034000880F991F0A94E2F7842B952B11969C93A2
:100350008E9341C0A8E3B0E0E8E3F0E04081518132
:100360002B813C8181E090E0022E02C0880F991F12
:100370000A94E2F7842B952B11969C938E932BC0B5
:10038000A5E3B0E0E5E3F0E0408151812B813C81C1
:1003900081E090E0022E02C0880F991F0A94E2F7D4
:1003A000842B952B11969C938E9315C0A2E3B0E0FD
:1003B000E2E3F0E0408151812B813C8181E090E0DB
:1003C000022E02C0880F991F0A94E2F7842B952B06
:1003D00011969C938E932A960FB6F894DEBF0FBEAB
:1003E000CDBFCF91DF910895DF93CF93CDB7DEB727
:1003F0002A970FB6F894DEBF0FBECDBF9A838983CC
:100400007C836B835E834D8389819A81009709F495
:1004100018C189819A818530910508F012C18B81BC
:100420009C818830910508F00CC18D819E810097D8
:1004300031F08D819E818130910509F002C18D815D
:100440009E81009709F080C089819A8198878F8367
:100450008F8198858230910579F18F8198858330DD
:10046000910530F48F8198858130910569F0E9C05C
:100470008F81988583309105B9F18F81988584307B
:10048000910509F449C0DDC0AAE3B0E0EAE3F0E079
:10049000408151812B813C8181E090E0022E02C09D
:1004A000880F991F0A94E2F78095909584239523ED
:1004B00011969C938E93C5C0A7E3B0E0E7E3F0E00C
:1004C000408151812B813C8181E090E0022E02C06D
:1004D000880F991F0A94E2F78095909584239523BD
:1004E00011969C938E93ADC0A4E3B0E0E4E3F0E0FA
:1004F000408151812B813C8181E090E0022E02C03D
:10050000880F991F0A94E2F780959095842395238C
:1005100011969C938E9395C0A1E3B0E0E1E3F0E0E7
:10052000408151812B813C8181E090E0022E02C00C
:10053000880F991F0A94E2F780959095842395235C
:1005400011969C938E937DC08D819E818130910503
:1005500009F077C089819A819A87898789859A85E8
:100560008230910569F189859A858330910530F44F
:1005700089859A858130910569F063C089859A855E
:100580008330910599F189859A858430910509F424
:1005900043C057C0AAE3B0E0EAE3F0E040815181F4
:1005A0002B813C8181E090E0022E02C0880F991FD0
:1005B0000A94E2F7842B952B11969C938E9341C05D
:1005C000A7E3B0E0E7E3F0E0408151812B813C817B
:1005D00081E090E0022E02C0880F991F0A94E2F792
:1005E000842B952B11969C938E932BC0A4E3B0E0A3
:1005F000E4E3F0E0408151812B813C8181E090E097
:10060000022E02C0880F991F0A94E2F7842B952BC3
:1006100011969C938E9315C0A1E3B0E0E1E3F0E066
:10062000408151812B813C8181E090E0022E02C00B
:10063000880F991F0A94E2F7842B952B11969C93AF
:100640008E932A960FB6F894DEBF0FBECDBFCF9122
:10065000DF910895DF93CF9300D000D000D0CDB7C5
:10066000DEB79A8389837C836B8389819A81009723
:1006700009F43FC089819A8185309105D0F589813F
:100680009A819E838D838D819E8182309105E9F0D0
:100690008D819E818330910530F48D819E818130E2
:1006A000910561F026C08D819E8183309105A1F076
:1006B0008D819E8184309105B1F01BC0EAE3F0E0AA
:1006C0008B819C819183808314C0E7E3F0E08B8170
:1006D0009C81918380830DC0E4E3F0E08B819C8159
:1006E0009183808306C0E1E3F0E08B819C8191835C
:1006F000808326960FB6F894DEBF0FBECDBFCF9194
:10070000DF910895DF93CF9300D000D000D0CDB714
:10071000DEB79A8389837C836B8389819A81009772
:1007200009F43FC089819A8185309105D0F589818E
:100730009A819E838D838D819E8182309105E9F01F
:100740008D819E818330910530F48D819E81813031
:10075000910561F026C08D819E8183309105A1F0C5
:100760008D819E8184309105B1F01BC0EBE3F0E0F8
:100770008B819C819183808314C0E8E3F0E08B81BE
:100780009C81918380830DC0E5E3F0E08B819C81A7
:100790009183808306C0E2E3F0E08B819C819183AA
:1007A000808326960FB6F894DEBF0FBECDBFCF91E3
:1007B000DF910895DF93CF9300D000D000D0CDB764
:1007C000DEB79A8389837C836B8389819A810097C2
:1007D00009F483C089819A818530910508F07DC034
:1007E0008B819C818830910508F077C089819A813E
:1007F0009E838D838D819E818230910569F18D81EB
:100800009E818330910530F48D819E8181309105E8
:1008100069F063C08D819E818330910599F18D814E
:100820009E818430910509F443C057C0AAE3B0E02B
:10083000EAE3F0E0408151812B813C8181E090E04E
:10084000022E02C0880F991F0A94E2F78427952789
:1008500011969C938E9341C0A7E3B0E0E7E3F0E0EC
:10086000408151812B813C8181E090E0022E02C0C9
:10087000880F991F0A94E2F78427952711969C9375
:100880008E932BC0A4E3B0E0E4E3F0E0408151811B
:100890002B813C8181E090E0022E02C0880F991FDD
:1008A0000A94E2F78427952711969C938E9315C09E
:1008B000A1E3B0E0E1E3F0E0408151812B813C8194
:1008C00081E090E0022E02C0880F991F0A94E2F79F
:1008D0008427952711969C938E9326960FB6F894AD
:1008E000DEBF0FBECDBFCF91DF910895DF93CF93D1
:1008F000CDB7DEB780E090E0CF91DF910895F89416
:02090000FFCF27
:00000001FF
